:020000040800F2
:1000000028BA0020CD010008692200082520000838
:1000100065220008850500082D2B0008000000005F
:10002000000000000000000000000000FD230008A8
:10003000AD050008000000006D2200080124000842
:10004000E7010008E7010008E7010008E7010008F0
:10005000E7010008E7010008E7010008E7010008E0
:10006000E7010008E7010008E7010008E7010008D0
:10007000E70100088905000895050008A1050008AA
:10008000E7010008E7010008E7010008E7010008B0
:10009000E7010008E7010008E7010008E7010008A0
:1000A000E7010008E7010008E7010008E701000890
:1000B000E7010008E7010008E7010008E701000880
:1000C000E7010008E7010008E7010008E701000870
:1000D000E7010008212B0008E7010008E7010008FC
:1000E000E7010008E7010008E7010008E701000850
:1000F000E7010008E7010008E7010008E701000840
:10010000E7010008E7010008E7010008E70100082F
:10011000E7010008E7010008492A0008E701000894
:10012000E7010008E7010008E7010008E70100080F
:1001300000F002F800F03AF80AA090E8000C8244BF
:100140008344AAF10107DA4501D100F02FF8AFF29C
:10015000090EBAE80F0013F0010F18BFFB1A43F0A5
:100160000103184748A1030068A10300103A24BF07
:1001700078C878C1FAD8520724BF30C830C144BF0C
:1001800004680C607047000000230024002500264E
:10019000103A28BF78C1FBD8520728BF30C148BFEA
:1001A0000B6070471FB51FBD10B510BD00F085F97D
:1001B0001146FFF7F7FF2DF071FF00F0A3F903B42C
:1001C000FFF7F2FF03BC00F0ABF9000009488047DD
:1001D00009480047FEE7FEE7FEE7FEE7FEE7FEE729
:1001E000FEE7FEE7FEE7FEE704480549054A064B41
:1001F00070470000052400083101000828B40020E1
:1002000028BA002028B6002028B6002053EA020CA5
:1002100000F069802DE9F04B4FF00006002B1FBF66
:10022000B3FA83F503FA05F424FA05F65E4012BF2B
:100230001643B2FA82F502FA05F4C5F120051EBF95
:1002400022FA05FC44EA0C04203556EA044C4FEA35
:10025000144418BF641C4FF000084FF0000990428E
:1002600071EB030C39D3002919BFB1FA81F701FAF8
:1002700007F6B0FA80F700FA07F6C7F120071EBFAD
:1002800020FA07FC46EA0C062037B6FBF4FCA7EB85
:100290000507103F07F01F0BCBF120062CFA06F6DE
:1002A0000CFA0BFB44BFB3460026202FA4BF5E46CA
:1002B0004FF0000B5BEA060C08BF4FF0010B19EB87
:1002C0000B0948EB0608ABFB027C06FB02CC0BFBE0
:1002D00003CCC01B71EB0C01C1E70B460246414643
:1002E0004846BDE8F08B13B5084318BF4FF0FF3008
:1002F0000146AFF30080BDE81C40704740EA0103AF
:10030000024630B59B0710D14FF0013400E008C21F
:1003100008C91D1B9D4315EAC41FF8D013F0FF0147
:1003200002F8011B0DD01B0AF8E711F8013B002B66
:1003300002F8013B05D011F8013B002B02F8013B0C
:10034000F3D130BD10B5431C02E010F8011B71B1B0
:100350008107FAD14FF0013202C88C1A8C4314EA9B
:10036000C211F9D0C01A0A0603D0C01E10BDC01AAF
:1003700010BD0A0401D0801E10BD0902FCD0401E31
:1003800010BD02F0FF0343EA032242EA024200F0FA
:100390000AB802F0FF0343EA032242EA024200F0F5
:1003A00024B84FF000020429C0F0128010F0030CB2
:1003B00000F01B80CCF1040CBCF1020F18BF00F858
:1003C000012BA8BF20F8022BA1EB0C0100F00DB807
:1003D0005FEAC17C24BF00F8012B00F8012B48BF65
:1003E00000F8012B70474FF0000200B51346944609
:1003F0009646203922BFA0E80C50A0E80C50B1F17D
:100400002001BFF4F7AF090728BFA0E80C5048BF90
:100410000CC05DF804EB890028BF40F8042B08BF2E
:10042000704748BF20F8022B11F0804F18BF00F82A
:10043000012B70474FF0013C50F8042B51F8043B5E
:100440009A4221D1A2EB0C03934313EACC1317D1A8
:1004500050F8042B51F8043B9A4215D1A2EB0C033F
:10046000934313EACC130BD150F8042B51F8043BFF
:100470009A4209D1A2EB0C03934313EACC13DBD0CD
:100480004FF00000704700BFD01A01BAB1FA81F1F5
:1004900001F0180122FA01F0CB40DBB2C0B2C01A61
:1004A000C1F120012CFA01F3D11A914311EAC311D1
:1004B000E6D17047704770477047754600F02CF8DA
:1004C000AE4605006946534620F00700854618B041
:1004D00020B5FFF789FEBDE820404FF000064FF041
:1004E00000074FF000084FF0000BAC46ACE8C00925
:1004F000ACE8C009ACE8C009ACE8C00921F00701CC
:100500008D46704710B50446AFF300802046BDE825
:100510001040FFF754BE000000487047B0000020B4
:1005200001491820ABBEFEE726000200704700001C
:10053000F0B581B007462A201C4616460D4602F04B
:100540003DFA002002F062FA384602F05FFA00201D
:1005500002F05CFA304602F059FA2B2002F02EFA33
:10056000002002F053FA284602F050FA002002F070
:100570004DFA204602F04AFA2C2001B0BDE8F040C6
:1005800002F01CBAFEE7000040F2FC40C2F200009C
:1005900000F0C6B840F24050C2F2000000F0C0B80F
:1005A00040F28450C2F2000000F0BAB87047000078
:1005B000EFF3108072B600BFFEE70000014690F82E
:1005C0002100022816D10868D1E90FC3026822F081
:1005D0000E020260026822F001020260012000FAAD
:1005E00003F2CCF8042081F821000020002281F8D9
:1005F00020207047042088630120002281F82020F9
:100600007047000080B590F82110022927D10268B8
:1006100040F2040C1368C4F2020C23F00E031360C2
:1006200013680CF17C018A4223F0010111601AD990
:1006300040F20841C4F202018A4247D040F21C4114
:10064000C4F202018A4245D040F23041C4F20201B4
:100650008A4243D14FF48073CCF8003457E0042130
:100660008163012080BD4321C4F202018A420EDD74
:100670006B21C4F202018A421BDC4421C4F2020154
:100680008A4239D05821C4F202018A4231E008215D
:10069000C4F202018A4232D01C21C4F202018A4211
:1006A00032D03021C4F202018A4222D14FF480724A
:1006B0002BE06C21C4F202018A4222D08021C4F2D4
:1006C00002018A4215D14FF080721EE00123CCF85E
:1006D00000341CE01023CCF8003418E00CF58861DD
:1006E0004FF480338A4208BF4FF48053CCF8003473
:1006F0000DE04FF4803208E04FF4805205E0012213
:1007000003E04FF4801200E01022CCF80020416B8F
:100710004FF48072028401B18847002080BD000040
:1007200010B5D0F800E0D0E90FC3DCF80020DEF807
:1007300000104C0734D504249C40144030D0DEF81F
:100740000010890605D4DEF8001021F00401CEF86F
:1007500000100422C4F2020202F17C018E4553D93A
:1007600040F20841C4F202018E4500F0C88040F218
:100770001C41C4F202018E4500F0C98040F23041B4
:10078000C4F202018E4540F0CA804FF48061C2F885
:100790000014C16A002900F03E81BDE810400847FE
:1007A0008C074ED502249C4014404AD0DEF800103D
:1007B000890608D4DEF8001021F00A01CEF80010F6
:1007C000012180F821100422C4F2020202F17C010E
:1007D0008E4554D940F20841C4F202018E4500F022
:1007E000CC8040F21C41C4F202018E4500F0C98069
:1007F00040F23041C4F202018E4540F0C6804FF411
:100800000071C2F80014FEE04321C4F202018E45DB
:100810004ADD6B21C4F202018E455EDC4421C4F244
:1008200002018E4500F0BC805821C4F202018E45C1
:1008300040F0CD804FF480211160C16A0029ACD115
:10084000E9E0090740F1E78008219940114008BF1D
:1008500010BDDEF8001021F00E01CEF800100121CD
:1008600001FA03F2CCF804208163016B4FF480722B
:100870000029028400F0CF80BDE8104008474321E2
:10088000C4F202018E4559DD6B21C4F202018E458E
:1008900066DC4421C4F202018E4500F0AA80582192
:1008A000C4F202018E459AE00821C4F202018E458D
:1008B0007ED01C21C4F202018E4500F093803021CD
:1008C000C4F202018E4540F082804FF480611160D5
:1008D000C16A00297FF461AF9DE06C21C4F202017E
:1008E0008E456CD08021C4F202018E456FD14FF04D
:1008F00080611160C16A00297FF44FAF8BE0042151
:10090000C2F80014C16A00297FF447AF83E0402198
:10091000C2F80014C16A00297FF43FAF7BE002F502
:1009200088634FF480219E4508BF4FF48041C2F890
:100930000014C16A00297FF430AF6CE00821C4F2D2
:1009400002018E4558D01C21C4F202018E4558D0B8
:100950003021C4F202018E4541D14FF4007151E0C3
:100960006C21C4F202018E4548D08021C4F20201FC
:100970008E4534D14FF0007144E00221C2F80014DA
:1009800041E02021C2F800143DE002F588634FF4F5
:1009900000319E4508BF4FF40051C2F8001432E008
:1009A0004FF480411160C16A00297FF4F6AE32E055
:1009B00004211160C16A00297FF4EFAE2BE04FF4EF
:1009C00080011160C16A00297FF4E7AE23E04FF493
:1009D00080211160C16A00297FF4DFAE1BE04FF473
:1009E00000310FE040211160C16A00297FF4D5AECB
:1009F00011E04FF4005105E0022103E04FF4001133
:100A000000E020211160816A002280F8202011B1CD
:100A1000BDE81040084710BD002842D02DE9F04144
:100A200040F2000CC4F2020C01684FF6F8320CF5EB
:100A30008163CBF6FD72994238BF02F580624CF6B5
:100A4000CD430A44CCF6CC43A2FB03236FF003054D
:100A50000CF5806405EA9303D0E9012ED0F80C80F0
:100A60003CBF0024C4F20204C0E90F430B6843F604
:100A7000F075AB431A43D0E9045442EA0E0242EA4D
:100A80000802D0E906672A43224332433A430A6008
:100A900000214FF4807281630284BDE8F041084672
:100AA0007047012108467047F0B590F820C0BCF1AE
:100AB000010F32D090F821C04FF0010EBCF1010FB0
:100AC00080F820E026D14FF0020C80F821C04FF0D2
:100AD000000CC0F838C0D0E900C4C56AC66BDCF8A9
:100AE0000070102C27F00107CCF80070006C0EFA93
:100AF00000F070600846CCF8043004BF10460A4687
:100B0000CCF80800CCF80C20DCF800003DB140F037
:100B10000E000CE0002180F820100220F0BD20F033
:100B20000400CCF80000DCF8000040F00A00CCF82B
:100B30000000DCF8000040F00100CCF800000020CC
:100B4000F0BD0000B0B5044600F016F9054640F2CD
:100B50000000C2F200000078611C18BF044400BF0E
:100B600000F00AF9401BA042FAD3B0BD2DE9F04FC6
:100B700082B0D1F800C0BCF1000F00F0F380A0F10A
:100B8000804241F60045A2F58432C4F2010540F2EC
:100B9000004E4FEAB2240627A842C4F2010E08BF55
:100BA0000527052C4FF000044FF001084FF00F030C
:100BB0004FF0000A4FF0000B38BF4FEAB227009702
:100BC00008FA0AF91CEA090F0FD100BFD1F800C0DA
:100BD0000AF1010A3CFA0AF204F1040400F0C280AE
:100BE00008FA0AF91CEA090FF0D04E684FF6FF72B6
:100BF000C1F21002964211DC122E51D8DFE806F045
:100C0000340A42465050505050505050505050505E
:100C100050494D00D1F80CB042E000BF4FF6FF72D2
:100C2000C1F2210296420FDC0022C1F2110296426B
:100C30001AD00022C1F21202964215D00022C1F24F
:100C40002102964210D02BE00022C1F222029642ED
:100C50000AD00022C1F23102964205D00022C1F230
:100C6000320296421CD100BF8A6842B1012A14BFE9
:100C7000C0F81490C0F810904FF0080B10E04FF03F
:100C8000040B0DE0CA6802F1080B09E04FF0000BFD
:100C900006E0CA6802F1040B02E0CA6802F10C0B1C
:100CA00022460646BAF1080F24BF203A04363768B8
:100CB00003FA02F5AF430BFA02F23A433260CA7903
:100CC000D2067FF583AF41F21802C4F20202174642
:100CD00012680F2542F001023A603A684FF6084761
:100CE00002F001020192019A2AF003027244CFF647
:100CF000FF773B46D75904F00C06B540AF43009D43
:100D000005FA06F63743D7504E680F23F203DEF894
:100D1000002054BF22EA090242EA0902CEF800206C
:100D2000DEF80420B70354BF22EA090242EA0902AE
:100D3000CEF80420DEF80820F70254BF22EA0902A8
:100D400042EA0902CEF8082040F20C42B702C4F28F
:100D500001021746126854BF22EA090242EA090258
:100D60003A6033E702B0BDE8F08F0000002A08BF08
:100D700009040161704700004BF22440C2F20000F8
:100D80000068704740F200004BF22441C2F20000BC
:100D9000C2F2000100780A68104408607047000041
:100DA00080B542F20000C4F20200016841F0100177
:100DB0000160032000F082F80F2000F005F800F039
:100DC00027F8002080BD000070B540F20006C2F296
:100DD000000640F264013278C2F200014FF47A73E7
:100DE0000968B3FBF2F20446B1FBF2F1084600F0E9
:100DF000EFFC0F2C4FF0010508D838B94FF0FF3049
:100E000021460022002500F02DF87460284670BDB0
:100E100082B041F21800C4F20200016841F0010101
:100E20000160016801F0010101910199416841F0FF
:100E300080514160406800F080500090009802B0FE
:100E400070470000002848BF704700F01F010122D2
:100E500002FA01F14EF200124009CEF2000242F80D
:100E60002010704710B54EF60C5CCEF2000CDCF88A
:100E70000030C3F3022E8EF00704042C28BF042494
:100E8000BEF103034FF0FF3E0EFA04F438BF002317
:100E9000A14399400EFA03F39A4300F00F03043B79
:100EA0001143634409010C3300F16042B0F1FF3F8C
:100EB000C8BF02F56443197010BD00004EF60C5116
:100EC000CEF200010A684FF6FF031A4060F30A22CF
:100ED00042F0806040F0FD70086070472DE9F043FB
:100EE00081B0002800F0AB8042F20008C4F2020892
:100EF0000446D8F800000D4600F0070088420DD2E5
:100F0000D8F8000020F007002843C8F80000D8F8FF
:100F1000000000F00700A84240F09180206841F2F4
:100F200004098107C4F2020917D5410705D5D9F88C
:100F3000001041F4E061C9F80010010705D5D9F8A7
:100F4000001041F46051C9F80010D9F80010A268EF
:100F500021F0F0011143C9F80010C0072DD06068DE
:100F6000012804D159F8041C890368D508E059F810
:100F7000041C022802D1890161D501E089075ED5F0
:100F8000D9F8001021F003010843C9F80000FFF769
:100F9000F3FE064641F28837D9F80000616800F098
:100FA0000C00B0EB810F08D0FFF7E6FE801BB842C3
:100FB000F2D9032001B0BDE8F083D8F8000000F0BA
:100FC0000700A8420CD9D8F8000020F007002843F9
:100FD000C8F80000D8F8000000F00700A8422ED1A1
:100FE0002068410707D5D9F80010E26821F4E061D4
:100FF0001143C9F80010000708D5D9F8000021698D
:1010000020F4605040EAC100C9F80000D9F800207F
:1010100002F00C00082841F20020C0F27A001ED134
:1010200045F64C63C2F38341C0F60303595CD20317
:1010300009D440F60010C0F23D0048430FE0012003
:1010400001B0BDE8F083D9F8002045F67643C2F33D
:101050004042C0F603039A5C4843B0FBF2F0D9F873
:10106000001045F68442C1F30311C0F60302515C3F
:1010700040F2640220FA01F140F20400C2F20000E2
:101080000068C2F200021160FFF79EFE002001B06E
:10109000BDE8F08340F2640041F20401C2F20000B6
:1010A000C4F202010068096845F69442C1F30221C6
:1010B000C0F60302515CC8407047000040F2640073
:1010C00041F20401C2F20000C4F2020100680968A2
:1010D00045F69442C1F3C221C0F60302515CC840F8
:1010E000704700002DE9F04182B0002800F0A58093
:1010F0000446007841F20006C007C4F202064CD054
:10110000706800F00C00042817D0706800F00C0024
:10111000082802D17068C0030FD4606898B1B0F598
:10112000803F06D03168B0F5A02F22D141F4802055
:101130003060306840F4803021E0306880032CD586
:10114000606850BB79E0306820F4803030603068EF
:1011500020F480203060FFF70FFE054630688003E2
:101160001BD5FFF709FE401B64284FF00300F5D99B
:1011700088E121F480303060306820F480203060D5
:10118000FFF7FAFD054600BF3068800305D4FFF77E
:10119000F3FD401B6428F7D940E1207880072FD564
:1011A000706810F00C0F07D0706800F00C00082871
:1011B00009D17068C00306D43068800719D520694A
:1011C00001283AD115E02069002840F20000C4F25D
:1011D000422000F0E38001210160FFF7CDFD0546CC
:1011E0003068800705D4FFF7C7FD401B0228F7D9F8
:1011F00014E13068616920F0F80040EAC100306015
:10120000207800071DD4207840072ED4E569002DF2
:1012100000F03781706800F00C00082871D1012DB2
:101220000BD07068216A00F480328A4205D1616A6D
:1012300000F47010884200F02481012002B0BDE863
:10124000F081A06900B30020C4F242200121C0F85F
:101250008014FFF791FD0546706A800774D4FFF78C
:101260008BFD401B0228F7D9D8E0F069C0001ED4DE
:10127000F0694FF0010840F08050F061F06900F033
:1012800080500090009814E00020C4F24220002119
:10129000C0F88014FFF770FD054600BF706A800734
:1012A000B1D5FFF769FD401B0228F7D9B6E04FF032
:1012B000000847F20007C4F200073868C00510D4E0
:1012C000386840F480703860FFF756FD054600BF6F
:1012D0003868C00505D4FFF74FFD401B6428F7D9D7
:1012E0009CE0E06800286BD0012806D0316A052810
:1012F00040F07F8041F004003062306A40F001002D
:101300007DE00027C4F2422700203866FFF734FD55
:10131000022D05460CD100BF3068800140F18F805E
:10132000FFF72AFD401B02284FF00300F4D9A9E083
:101330003068800140F1A580FFF71EFD401B0228A8
:101340004FF00300F4D99DE040F26400C2F20000C7
:10135000006844F6D351C1F26201A0FB0101480AC2
:10136000019000BF00BF0198411E002801913FF489
:101370004AAF00BF0198411E002801913FF443AFDE
:1013800000BF0198411E002801913FF43CAF00BF0F
:101390000198411E00280191E4D134E70021016049
:1013A000FFF7EAFC054600BF306880077FF528AFED
:1013B000FFF7E2FC401B02284FF00300F4D961E084
:1013C000306A20F001003062306A20F004003062A0
:1013D000FFF7D2FC054641F2883700BF306A80072C
:1013E00020D5FFF7C9FC401BB8424FF00300F5D9E8
:1013F00048E021F001003062306A20F004003062E1
:10140000FFF7BAFC054641F2883700BF306A800713
:1014100008D4FFF7B1FC401BB842F7D9032002B053
:10142000BDE8F081B8F1000F3FF4F0AEF06920F0B4
:101430008050F061E569002D7FF4ECAE21E0206A78
:10144000B0F5803F05D17168A26821F400311143E5
:1014500071607168626A21F474111043084370600E
:1014600001203866FFF788FC044600BF3068800121
:1014700007D4FFF781FC001B02284FF00300F5D9C9
:1014800000E0002002B0BDE8F081000070470000DD
:1014900090F851007047000070B538B10446406ABA
:1014A00038B10020206104F1140008E00126304624
:1014B00070BD6068B0F5827F03D004F11C0000218C
:1014C00001600026A66294F851004FF0000C38B974
:1014D000204684F8506000F03BF8A06A00F4005CFD
:1014E000022184F8511094E80E00E0680D6802F4BF
:1014F000827225F040050D6003F404431A44236909
:1015000000F40060104403F002026369104403F029
:101510000102A369E569104403F40072104405F068
:101520003802256A104405F08002104340EA0C009E
:101530000860042000EA13404860C86920F4006095
:10154000C8610120666584F85100304670BD000016
:101550002DE9F04385B000270497CDE902770446D2
:10156000006843F60001C4F20001884201974FD0A1
:1015700043F20001C4F20101884240F0B38041F21D
:101580001800C4F20200016840F6000541F48051E1
:1015900001600168C4F2010501F4805100910099D5
:1015A000016801AE41F0040101600068314600F0BD
:1015B000040000900098A0200190022002900320D7
:1015C00004902846FFF7D2FA4020019000272846D1
:1015D0003146CDE90277FFF7C9FA40F2FC453020E9
:1015E000C2F20005C4F20200102180224FF48053A1
:1015F00085E883002846C5E90327C5E90577EB613F
:10160000FFF70AFA002818BFFEF7D2FFA56466E0CC
:1016100041F21800C4F20200416801AE41F4804179
:101620004160416840F2300801F480410091009926
:101630000168C4F2020841F0080101600068314607
:1016400000F00800009000984FF420400190022024
:1016500002900320049040F60000C4F2010000F55F
:1016600080652846FFF782FA4FF48040CDE90107F4
:10167000284631460397FFF779FA40F2845508F17E
:101680002800C2F20005102180264FF4805985E819
:1016900083002846C5E90367C5E90577C5F81C90AE
:1016A000FFF7BAF9002818BFFEF782FFA5646C6245
:1016B00040F2405508F11400C2F200050021C5E9CE
:1016C00000012846C5E90216C5E90411C5E9061955
:1016D000FFF7A2F9002818BFFEF76AFFE56405F1DD
:1016E0002400046005B0BDE8F0830000B0B50446F6
:1016F00090F85000012804BF0220B0BD012084F8FA
:10170000500094F85100012809D100294FF0010040
:1017100018BF002A08D1002184F85010B0BD022063
:10172000002184F85010B0BD0320002384F851003C
:1017300063652163A286E286A363C4E91033A387AD
:10174000E387A0682268B0F5004F07D1106820F049
:1017500040001060106840F480401060A06C42F2BD
:10176000912C42F2992E42F27125C0F6000CC0F67F
:10177000000EC0F60005C0E90AECC0E90C53E38E88
:101780000C32FFF791F950B1606D40F010006065C8
:10179000012084F85100002184F85010B0BD206869
:1017A0000168490603D4016841F0400101604168C5
:1017B00041F020014160416841F002014160002098
:1017C000002184F85010B0BD704700007047000041
:1017D000411E0020B0EB116F1CBF012070474EF27C
:1017E0001002CEF2000251604EF62351CEF20001FB
:1017F000F0230B7007219060116070477047000064
:101800007047000010B590F83C20012A4FF002020A
:1018100041D0012380F83C3080F83D200268D2F8A6
:1018200004E0D2F808C00C682EF07003234340F6A1
:10183000FF34C4F20004A24253600FDCB2F1804FC7
:101840001ED040F20043C4F200039A4218D040F682
:101850000003C4F200039A4212D016E040F600439F
:10186000C4F200039A420BD043F20043C4F20103D6
:101870009A4205D042F60043C4F201039A4204D1D1
:1018800049682CF08003194391600121002280F8FF
:101890003D1080F83C20104610BD0000002804BF19
:1018A0000120704710B5044690F83D0028B900208B
:1018B00084F83C00204600F083F8022084F83D00C4
:1018C000206840F6FF330268C4F2000343F2004C84
:1018D0009842C4F2010C20DCB0F1804F2BD040F2D2
:1018E0000041C4F20001884225D040F60001C4F254
:1018F000000188421FD0984223DCB0F1804F2ED0E7
:1019000040F20041C4F20001884228D040F60001B4
:10191000C4F20001884222D025E040F60041C4F222
:101920000001884207D0604505D042F60041C4F26C
:1019300001018842DFD1A16822F070020A43984277
:10194000DBDD40F60041C4F20001884207D060456B
:1019500005D042F60041C4F20101884203D1216959
:1019600022F440720A43A36922F08001D4F804E013
:10197000E268194360450160C262C0F828E005D002
:1019800042F60041C4F20101884201D1616901635C
:1019900001214161002084F8461084F83E1084F84B
:1019A0003F1084F8401084F8411084F8421084F805
:1019B000431084F8441084F8451084F83D1010BD9D
:1019C00080B582B0006841F20001C4F20001884293
:1019D0001CBF02B080BD41F21C00C4F202000168CD
:1019E000002241F0100101600068002100F01000A9
:1019F000019001983620FFF735FA362002B0BDE895
:101A00008040FFF71FBA00007047000010B5016862
:101A100004460869800744BFC8685FEA80703BD409
:101A20000869400744BFC8685FEA407050D408693D
:101A3000000744BFC8685FEA007066D40869C00642
:101A400044BFC8685FEAC0607CD40869C0071CBF97
:101A5000C8685FEAC07040F093800869000644BF20
:101A6000C8685FEA006000F19A800869400644BFD8
:101A7000C8685FEA406000F1A1800869800646BF3F
:101A8000C8685FEA806010BD6FF0200220460A61DE
:101A9000BDE81040FFF7B4BE6FF0020008610120FE
:101AA00020778869800703D02046FFF7ADFF05E067
:101AB000204600F08BF8204600F08AF821680020CC
:101AC00020770869400744BFC8685FEA4070AED518
:101AD0006FF00400086102202077886910F4407FCD
:101AE00003D02046FFF790FF05E0204600F06EF897
:101AF000204600F06DF82168002020770869000773
:101B000044BFC8685FEA007098D56FF008000861AC
:101B100004202077C869800703D02046FFF774FFB0
:101B200005E0204600F052F8204600F051F8216808
:101B3000002020770869C00644BFC8685FEAC0601B
:101B40007FF583AF6FF01000086108202077C86927
:101B500010F4407F03D02046FFF756FF05E02046F3
:101B600000F034F8204600F033F821680020207798
:101B70000869C0071CBFC8685FEAC0703FF46DAF5A
:101B80006FF001000861204600F024F82168086920
:101B9000000644BFC8685FEA00607FF566AF6FF07B
:101BA000800008612046FFF729FE21680869400689
:101BB00044BFC8685FEA40607FF55FAF6FF04000E8
:101BC0000861204600F008F8216856E770470000D9
:101BD0007047000070470000704700007047000029
:101BE00070470000F0B581B0026804461068D16803
:101BF000556900F02F03202B01F0200306D12BB1F3
:101C0000204601B0BDE8F04000F030BF5FEA007C44
:101C100008D005F0010E11F4907F8EF0010545D13A
:101C2000002D43D0236B0840C1062DD5012B2BD1AD
:101C30000020009010680090506800900098506953
:101C400040065AD4A08DE18DE38D002B1CBF401AB5
:101C50005FEA004100F0FD80D16821F49071D1600D
:101C6000516921F001015161202184F83E100021C9
:101C70002163D16821F0100381B22046D36001B006
:101C8000BDE8F040FFF7AABF010666D4400640F168
:101C9000E080D068202120F04000D060204684F809
:101CA0003D1001B0BDE8F04000F0BAB9C60718BF5A
:101CB00011F4807603D0266C46F00106266400F00D
:101CC0000407012686EA97072F4357D000F0020742
:101CD00086EA570635435BD053EA0E0318BF01234B
:101CE000BCF1000F5FD5002B5DD0236C43F00803DF
:101CF0002364236C002B59D1ABE0A06B01684B68C7
:101D00009EB2002E00F0A580A18D8E4280F0A180B1
:101D1000E3858369202B17D0D16821F48071D160CD
:101D2000516921F001015161516921F04001516176
:101D3000202184F83E1000212163D16821F0100198
:101D4000D160FEF73BFCA18DE08D081A81B22046E0
:101D500001B0BDE8F040FFF741BF94F83D002128F5
:101D600077D1A068B0F5805F02D12069002864D0E7
:101D7000206A411C21620078506065E0276C47F0C2
:101D80000207276400F0020786EA57063543A3D10D
:101D9000256C45F00405256453EA0E0318BF0123A2
:101DA000BCF1000F9FD4236C002B52D0084080065A
:101DB00003D5204600F05AFE22685069216C00F0DD
:101DC000400001F00801401830D0D06820F4907035
:101DD000D060506920F001005061206B012803D1D0
:101DE000D06820F01000D060202084F83E00002051
:101DF00020635069400613D5506920F040005061BF
:101E0000A06B68B142F66121C0F600014163FEF7A4
:101E1000F9FBF0B1A06B416B01B0BDE8F0400847A1
:101E2000204601B0BDE8F040FFF7DABE2046FFF7DC
:101E3000D7FE0020206401B0F0BD206A30F8021BFC
:101E40006FF35F2151602062E08C01380104E0846F
:101E500001D001B0F0BDD06820F08000D060D06823
:101E600040F04000D06001B0F0BD0000002804BF89
:101E70000120704710B5044690F83D0028B90020B5
:101E800084F83C00204600F05FF8242084F83D00F0
:101E90002068D4E90212C36823F40053C3600369C5
:101EA00023F440531A430261D4E904231143C26866
:101EB000194341F20C639A431143C1604169A2691D
:101EC00021F44071114343F60002C4F20102904232
:101ED000416102D0FFF7DEF801E0FFF7EFF862683A
:101EE000192148439100B0FBF1F048F21F51C5F2AF
:101EF000EB11A0FB01235A096FF0630302FB0300FF
:101F0000322303EB0010A0FB0101F02303EA51137D
:101F1000206803EB0212C1F343111144816001698F
:101F200021F490410161416921F02A014161C168B8
:101F300041F40051C16000202021206484F83D104C
:101F400084F83E1010BD000070B586B0002640F643
:101F500000040596CDE90366C4F20104006804F5A7
:101F600040518842029601D006B070BD41F218007F
:101F7000C4F20200016802AD41F4804101600168D1
:101F800001F4804101910199016841F0040101606F
:101F90000068294600F00400019001984FF4007099
:101FA000029002200390032005902046FEF7DEFDFC
:101FB0004FF48060CDE90206204629460496FEF7DC
:101FC000D5FD252000210022FEF74CFF2520FEF73D
:101FD00039FF06B070BD000070470000034690F85E
:101FE0003D0020280AD100294FF0010018BF002A27
:101FF00000D1704793F83C00012801D102207047BE
:102000001962002021219A84DA84186483F83D1033
:10201000196883F83C00CA6842F08002CA607047C1
:1020200070470000FEE7000080B582B041F2140066
:10203000C4F202000168002241F001010160006861
:10204000002100F00100019001980D20FEF70AFF29
:102050000D20FEF7F7FE0E2000210022FEF702FF02
:102060000E20FEF7EFFE0F2000210022FEF7FAFE01
:102070000F2002B0BDE88040FEF7E4BE2DE9F04736
:1020800084B041F21800C4F20200016840F6000476
:1020900041F0100101600168C4F2010401F0100177
:1020A000009100990168002241F02001016001685F
:1020B0004FF0000801F0200100910099016841F003
:1020C00004010160016801F00401009100990168B8
:1020D00041F00801016000680A2100F0080000904A
:1020E00000982046FEF742FE2046042101224FF0D0
:1020F000010AFEF73BFE04F5806528464FF4805147
:1021000001224FF48059FEF731FE0E206E46CDE9D4
:10211000000A032720463146CDF808800397FEF7D2
:1021200025FD28463146CDE9009ACDE90287FEF724
:102130001DFD04B0BDE8F087B0B540F2C85043F2D1
:102140000001C2F20000C4F201014FF482720023C8
:1021500080E80E0000F10C014FF0020C4FF0010E70
:102160004FF40074082581E808500A21C0E90645AB
:10217000C0E90833C0E90A31FFF78EF9002808BF2B
:10218000B0BDBDE8B040FEF713BA000080B540F224
:10219000206043F60001C2F20000C4F200014FF4D7
:1021A000827200234FF4007C80E80E000A21C0E90F
:1021B0000333C0E9053CC361C0E90833C0E90A3113
:1021C000FFF76AF9002808BF80BDBDE88040FEF730
:1021D000EFB9000010B582B040F2786041F2000122
:1021E0000024C2F20000C4F2000140F2E733CDE95E
:1021F0000044242280E81600C3608461FFF74EFB90
:10220000002818BFFEF7D4F940F27860C2F200004F
:102210006946CDE90044FFF7F5FA002818BFFEF73C
:10222000C7F902B010BD000080B540F2C06043F6AF
:102230000001C2F20000C4F2010100234FF00C0CB7
:102240004FF4165280E80E00C0E90333C0E905C31D
:10225000C361FFF70BFE002808BF80BDBDE88040CA
:10226000FEF7A6B9FEE70000FEE700007047000099
:10227000406A01684A6822F003024A60416D41F0F9
:1022800010014165012180F85110FFF7FFB80000EF
:10229000406AFFF79BBA0000B0B582B0446A0546B9
:1022A000FEF76AFD2968096889062ED4034620686E
:1022B0006422416821F020014160416821F002015F
:1022C00041602046802100F027F838B1606D40F071
:1022D00020006065606D40F020006065A06838B93E
:1022E000002001902068C1680191806801900198E8
:1022F0000020E086012084F85100606D28B120465E
:1023000002B0BDE8B040FFF7C1B8204602B0BDE85A
:10231000B040FFF759BA00002DE9F04182B01E46E7
:1023200090460D460446FEF727FD301A00EB0807DD
:10233000FEF722FD40F26401C2F200010968C1F318
:10234000CB317943019121688A682A40AA4227D17A
:10235000064618F101001FD0FEF70EFD801BB842A3
:1023600022D2019801990028A1F10101019121686F
:10237000896808BF074601EA0500A842ECD00FE0D3
:1023800088682840A8420BD188682840A84207D115
:1023900088682840A84203D188682840A842EFD026
:1023A000002002B0BDE8F081D4E900014268B1F537
:1023B000827F22F0E00242600AD1A168B1F5004FAD
:1023C00002D0B1F5806F03D1016821F040010160B6
:1023D000A16AB1F5005F07D1016821F400510160E5
:1023E000016841F400510160012084F8510000208F
:1023F00084F85000032002B0BDE8F081704700006F
:10240000FEF7C0BC70470000F0B5ADF5906D81B02F
:10241000010A002201AB00BF971CBFB29E18B7F59E
:10242000906F9954707017D2DE19D955171DBFB22D
:10243000FD09082D70700FD8DE19D955971DBFB250
:10244000FD09082D707007D8083292B2DE19B2F576
:10245000906FD9557070DFD340F600042A20C4F283
:10246000010400F0ABFA0020002700F0CFFA0020B2
:1024700000F0CCFA002000F0C9FAEF2000F0C6FA14
:102480002B2000F09BFA002000F0C0FA002000F0A2
:10249000BDFA002000F0BAFAEF2000F0B7FA2C20C5
:1024A00000F08CFA204604210022FEF75FFC40F287
:1024B000C855C2F20005286801AE816889075CBF73
:1024C00081685FEA81710AD50FE00137642F21D25C
:1024D000816889075CBF81685FEA817105D4816882
:1024E000890702D481688907F2D5284631464FF41E
:1024F0009062FFF7FBF828688168090644BF81688D
:102500005FEA0161E1D581680906DED581680906C7
:10251000F2D4DAE7204604210122FEF727FC0DF56C
:10252000906D01B0F0BD000010B540F60004C4F29B
:102530000104204608210022FEF718FC6420FEF763
:1025400001FB204608210122FEF710FC2046042151
:102550000022FEF70BFC6420FEF7F4FAEF2000F0F7
:102560002DFAEB2000F02AFA142000F04FFAFE209A
:1025700000F024FAEF2000F021FAEB2000F01EFA20
:10258000142000F043FA842000F018FA402000F0F4
:102590003DFA852000F012FAFF2000F037FA86207D
:1025A00000F00CFAFF2000F031FA872000F006FA64
:1025B000FF2000F02BFA882000F000FA0A2000F03B
:1025C00025FA892000F0FAF9212000F01FFA8A206C
:1025D00000F0F4F9002000F019FA8B2000F0EEF979
:1025E000802000F013FA8C2000F0E8F9012000F0C0
:1025F0000DFA8D2000F0E2F9012000F007FA8E209C
:1026000000F0DCF9FF2000F001FA8F2000F0D6F98D
:10261000FF2000F0FBF9B62000F0D0F9002000F018
:10262000F5F9202000F0F2F9362000F0C7F9082073
:1026300000F0ECF93A2000F0C1F9052000F0E6F9CD
:10264000902000F0BBF9082000F0E0F9082000F02D
:10265000DDF9082000F0DAF9082000F0D7F9BD20F4
:1026600000F0ACF9062000F0D1F9BC2000F0A6F98A
:10267000002000F0CBF9FF2000F0A0F9602000F06E
:10268000C5F9012000F0C2F9042000F0BFF9C32011
:1026900000F094F9132000F0B9F9C42000F08EF98D
:1026A000132000F0B3F9C92000F088F9222000F0CF
:1026B000ADF9BE2000F082F9112000F0A7F9E12069
:1026C00000F07CF9102000F0A1F90E2000F09EF936
:1026D000DF2000F073F9212000F098F90C2000F0C1
:1026E00095F9022000F092F9F02000F067F94520FA
:1026F00000F08CF9092000F089F9082000F086F933
:10270000082000F083F9262000F080F92A2000F04C
:102710007DF9F12000F052F9432000F077F97020A4
:1027200000F074F9722000F071F9362000F06EF9B3
:10273000372000F06BF96F2000F068F9F22000F00C
:102740003DF9452000F062F9092000F05FF908200A
:1027500000F05CF9082000F059F9262000F056F945
:102760002A2000F053F9F32000F028F9432000F06C
:102770004DF9702000F04AF9722000F047F9362038
:1027800000F044F9372000F041F96F2000F03EF9E5
:10279000ED2000F013F91B2000F038F90B2000F0B9
:1027A00035F9AE2000F00AF9772000F02FF9CD209E
:1027B00000F004F9632000F029F9702000F0FEF821
:1027C000072000F023F9072000F020F9042000F092
:1027D0001DF90E2000F01AF90F2000F017F909205A
:1027E00000F014F9072000F011F9082000F00EF9AC
:1027F000032000F00BF9E82000F0E0F8342000F0AE
:1028000005F9622000F0DAF8182000F0FFF80D203A
:1028100000F0FCF8712000F0F9F8ED2000F0F6F877
:10282000702000F0F3F8702000F0F0F8182000F0AD
:10283000EDF80F2000F0EAF8712000F0E7F8EF2043
:1028400000F0E4F8702000F0E1F8702000F0DEF80D
:10285000632000F0B3F8182000F0D8F8112000F041
:10286000D5F8712000F0D2F8F12000F0CFF87020F8
:1028700000F0CCF8702000F0C9F8182000F0C6F87D
:10288000132000F0C3F8712000F0C0F8F32000F02E
:10289000BDF8702000F0BAF8702000F0B7F864209E
:1028A00000F08CF8282000F0B1F8292000F0AEF8F4
:1028B000F12000F0ABF8012000F0A8F8F12000F0C2
:1028C000A5F8002000F0A2F8072000F09FF866208D
:1028D00000F074F83C2000F099F8002000F096F821
:1028E000CD2000F093F8672000F090F8452000F02C
:1028F0008DF8452000F08AF8102000F087F80020BD
:1029000000F084F8002000F081F8002000F07EF84C
:10291000672000F053F8002000F078F83C2000F029
:1029200075F8002000F072F8002000F06FF8002029
:1029300000F06CF8012000F069F8542000F066F80F
:10294000102000F063F8322000F060F8982000F0CA
:102950005DF8742000F032F8102000F057F8852060
:1029600000F054F8802000F051F8002000F04EF8FC
:10297000002000F04BF84E2000F048F8002000F056
:1029800045F8982000F01AF83E2000F03FF80720A4
:1029900000F03CF8342000F011F8212000F00EF88F
:1029A000112000F00BF87820FEF7CCF8292000F079
:1029B00005F81420BDE81040FEF7C4B8B0B582B0E9
:1029C00040F60004C4F2010405462046022100221C
:1029D000FEF7CCF92046042100228DF80750FEF7BF
:1029E000C5F940F2C850C2F200000DF10701012202
:1029F000FEF77CFE204604210122FEF7B7F92046AF
:102A000002210122FEF7B2F902B0B0BD10B582B0CA
:102A100040F60004C4F201048DF8070020460421AA
:102A20000022FEF7A3F940F2C850C2F200000DF1F7
:102A300007010122FEF75AFE204604210122FEF77B
:102A400095F902B010BD000080B540F27860C2F286
:102A50000000FEF7DBFF0120BDE880402AF0FEBC4D
:102A6000406A0021C185C184FFF7BAB881B090F8EF
:102A70003E10222920D18368B3F5805F08D1016917
:102A8000002941D000F128010A6803685B680AE068
:102A9000014651F8282F13B90369002BF5D00368BC
:102AA0005B6803F07F0313700A6801320A60C18D0E
:102AB00001390A04C18501D001B070470168CA68B4
:102AC00022F02002CA60CA6822F48072CA604A6991
:102AD00022F001024A61202280F83E20026B012A86
:102AE0001BD100220263CB6823F01003CB600B687C
:102AF000DB0605D500920A680092496800910099AA
:102B0000818D01B0FFF76AB80168826A49686FF386
:102B10005F2122F8021B8262C9E701B0FFF75CBAAD
:102B200040F2C060C2F20000FFF75CB8FEE70000B0
:102B3000B0B540F2A414C2F2000420464C2100F0CB
:102B4000D7FE45F28110C0F60000642100222AF071
:102B5000E1FC40F24C15C2F20005686001202870CB
:102B6000204600F095FE0146686821B12AF02AFD52
:102B700000202870B0BD2AF015FD00202870B0BDDF
:102B800070B50346B1F90000B2F90040B1F902C0D6
:102B9000B2F90250B1F904E0B2F90460A042B1F90F
:102BA0000610B2F90620C8BF0446AC451C80C8BF59
:102BB0006546B6455D80B8BF764691429E80B8BFF7
:102BC0000A460020B4424FF00001D8BF01219542CF
:102BD000D8BF01200840DA8070BD00002DE9F04325
:102BE00081B00C46B0F90070B1F900108F423DDBA6
:102BF000B0F90260B4F902108E4237DBB0F90490EC
:102C0000B4F90410894531DCB0F90680B4F9060046
:102C100080452BDC15466AB3694620462A46ADF846
:102C20000070ADF8026000F097F8F8B169462046F0
:102C30002A46ADF80090ADF8026000F08DF8A8B11A
:102C4000694620462A46ADF80070ADF8028000F0D3
:102C500083F858B1694620462A46ADF80090ADF891
:102C6000028000F079F801B0BDE8F083002001B0E7
:102C7000BDE8F083012001B0BDE8F083B0F9002089
:102C8000B1F904309A4213DCB0F90420B1F90030F4
:102C90009A420DDBB0F90220B1F906309A4207DC06
:102CA000B0F90600B1F902108842A4BF01207047B4
:102CB000002070472DE9F04381B00C46B0F9046064
:102CC000B1F900108E4211DBB0F90670B4F90210B0
:102CD0008F420BDBB0F90080B4F90410884505DCA5
:102CE000B0F90290B4F90600814503DD012001B07E
:102CF000BDE8F0831546EAB1694620462A46ADF89C
:102D00000080ADF8029000F027F898B96946204697
:102D10002A46ADF80060ADF8029000F01DF848B901
:102D2000694620462A46ADF80080ADF8027000F0F2
:102D300013F818B1002001B0BDE8F08369462046C1
:102D40002A46ADF80060ADF8027000F005F880F09A
:102D5000010001B0BDE8F0832DE9F041B1F9003088
:102D6000B0F90040A3420DDBB0F904E0734509DC83
:102D7000B1F902C0B0F902108C4503DBB0F906507E
:102D8000AC4502DD0020BDE8F081012A53DBAEEB4B
:102D90000400013086B200EBD63006B2681A01306A
:102DA00087B200EBD73007B24FEA66087810B8EB6D
:102DB000670FB8BF70109042A8BF1046021917B233
:102DC0004218BB4216B2D8BFB44515DD2A1ABB4221
:102DD00012B22BDC944529DB391809B2091B01EB2F
:102DE000D171801A4F1004EB6106A0EB61009B1BB0
:102DF000604407FB07F10EE0384400B2001B00EB13
:102E0000D070421004EB600701EB6000DB1BACEB01
:102E1000000002FB02F11AB2524300B200FB002292
:102E200000208A4298BF0120BDE8F081AEEB00048B
:102E300024B2A34202DA0120BDE8F08194451CDAF5
:102E4000B445F8DC201A02B2AEEB020202EBD272F9
:102E500000EB6200181A01EB6201ACEB010100B259
:102E6000404309B2571001FB010107FB07F20020A4
:102E7000914298BF0120BDE8F081211A0CB2AEEB5F
:102E8000040707EBD77701EB6701801A591AA0EB0B
:102E90006700604409B27E10494300B206FB06F2A7
:102EA00000FB00110020914298BF0120BDE8F08195
:102EB00070B5B1F90030B2F90040B1F902C0B2F911
:102EC0000250B1F904E0B2F90460A342B1F906106E
:102ED000B2F90620B8BF1C46AC450480B8BF6546B1
:102EE000B6454580C8BF764686809142C8BF0A462F
:102EF000C28070BD2DE9F04F8BB005462AF098FADC
:102F000040F2181B0446002DC2F2000B00F0A28014
:102F1000E868CBF8000028462AF044FBDBF8000004
:102F2000C169002900F09E800169002900F09A80A3
:102F3000322100220FF094F9DBF80010D1F86C0177
:102F4000C1F8AC4126F0B0F8DBF80010D1F8700100
:102F500018B126F0A9F8DBF80010D1F8780126F0B6
:102F6000A3F8DBF80000D0F87C0126F09DF8DBF830
:102F70000000D0F8800126F097F8DBF80000D0F8C8
:102F80006C11002971D090F82D10012905D1D0F8CD
:102F90005811097B092940F05D82B0F85061002E7C
:102FA00000F08E8000240DF1240A4FF0010826B9AC
:102FB0000134B4425DD2002EFAD0011991F83011DB
:102FC0000029F5D10027A74209D100BFDBF8000096
:102FD0000137B0F85061B742EAD2A742F6D0C11922
:102FE00091F830110029F1D100F1300101EBC4005A
:102FF00001EBC701FFF742FE0028E7D0DBF8000035
:10300000303000EBC40100EBC7025046FFF750FF21
:10301000504607F097FCDBF80010054601EBC400B2
:10302000303007F08FFCDBF80010064601EBC700DC
:10303000303007F087FC30448542C7D2DBF800000F
:10304000DDE9092300EBC40138440A634B6380F8CF
:103050003081BBE70FF042F8CBF80000C1690029CE
:103060007FF462AF0BB0BDE8F08F0021A0F85011E3
:10307000F0E10021002ECBF8041000F0E581012ED4
:1030800022DB811991F82F21002AA6F101021DD01F
:10309000012A19DB91F82E21002AA6F1020215D08F
:1030A000012A11DB91F82D21002AA6F103020DD08F
:1030B000012A09DB91F82C11043E0029DFD106E03A
:1030C0000020CBF80400BFE1002600E016462F21C7
:1030D00000220FF0C5F8DBF8000090F82C2090F8E3
:1030E0002E1002F0FE0280F82C2090F82C2002F026
:1030F000FD0280F82C20B0F85021002A41F0020295
:1031000080F82E2000F09C810025411991F83011A3
:10311000C1B922E010F82C2F017862F3410101704F
:10312000C9F8088048462BF047FDDBF8000000EBAB
:10313000C500303007F006FC0146DBE9000211440F
:10314000CBF80410B0F8501101358D4280F00D819C
:10315000411991F830110029F4D1B54205D190F808
:103160002C1041F0010180F82C1090F82C1000EB8D
:10317000C50401F0FD0180F82C10D0F85891816948
:1031800004F13008C9F8001090F82D1001B30EF0CA
:10319000B9FFDBF80010441E08460FF033F8013881
:1031A00007B223B2504600210022009707F004FC2A
:1031B000DBF80000C9F804A090F82D100129A9D06F
:1031C0000229B2D110F82C1FD04641F00201A6E727
:1031D000059534F9365FB8F80010234633F8022D10
:1031E000CDF81C8006932346511A33F8042D4F1C4A
:1031F000A91A049301F101080FF004F8854201DADD
:10320000208804E0DBF800000EF0FCFF0138DBF85A
:103210000040089094F82F000BF0C2F994F82F109A
:10322000054608460BF09EF9E1690222002D18BF01
:103230000322824298BF0246B1FBF2F039B2B0FBE2
:10324000F1F40FFA88F08442C8BF044600202746F4
:103250000990ADF8280000BFDBF800007D1E2E218C
:103260005246ADF82A500EF0FBFFBDF82610BDF90E
:103270002A00411A013109B28C4202DA2FB2002F22
:10328000EADC441C049839B2B0F900000129B8BF47
:103290000024089B2218511E1FB2B94280B206DDDD
:1032A0000021B942059D07993FF43FAF41E05546E3
:1032B0000AE000BF48462BF07FFC0FFA8AF00219A3
:1032C000511EB94250462BDC079B0FFA81F81B8830
:1032D0004745ADF82430069B92461B88ADF8283050
:1032E000ADF82600ADF82A10C9F80450DBF800004C
:1032F0002946C9F808508169C9F80010BCBFDDF83B
:103300002080ADF82A80089A1FFA88F192B28A428A
:10331000D0D190F82C1041F0020180F82C10C9E7B0
:103320000FFA88F15046AA46B942059D07993FF425
:10333000FCAE0988ADF8241006990988ADF828106C
:103340000899ADF82A10C9F804A0DBF80010C9F8F4
:1033500008A08A69ADF82600C9F8002091F82C0071
:1033600040F0020081F82C00DCE690F82E200029C5
:1033700002F0FD0280F82E2066D0302100224FF0AE
:1033800000080EF06DFFDBF800000EF051FFDBF8D7
:103390000010002840D091F82D0001283CD1486A47
:1033A00050B1D1F8B021002AF9D008469047DBF897
:1033B0000010486A0028F4D1D1F810A0D1F8189074
:1033C0000846D14508BFD1F814A00EF09BFEDBF8EB
:1033D0000010B1F85021FAB10546002630248819B2
:1033E00090F8300158B1B1F850010136864204F12D
:1033F000080411D2881990F830010028F3D1D1F8CF
:1034000058010B19876B49462A46CDE900A502935E
:10341000B847DBF80010E6E701F1300000214FF477
:1034200080721EF05FFFDBF80000002100F598704D
:1034300020221EF057FFDBF80000A0F8508103E0C7
:1034400001F0FD0180F82E1000F064F800F00AF899
:10345000DBF80000332100220EF002FF0BB0BDE8C4
:10346000F08F000010B540F2F024C2F20004206892
:10347000002818BF1AF074FB204600211C221EF001
:1034800031FFE069002818BF1AF06AFB04F11C0044
:1034900000211C221EF026FFA06B002818BF1AF086
:1034A0005FFB04F1380000211C221EF01BFF606D41
:1034B000002818BF1AF054FB04F1540000211C220C
:1034C000BDE810401EF00EBF40F2F841C2F200010C
:1034D000096804E00A7E42F001020A76496900297F
:1034E00008BF70474A688242F4D00A688242F5D128
:1034F000F0E70000406940F2F841C2F200010860C4
:103500007047000040F2F841C2F200010A684261CF
:10351000086070477047000040F29810C2F2000047
:10352000042100F0E5B9000040F2B010C2F2000042
:10353000202100F0DDB900002DE9F04F85B00E9E8E
:103540001D46002B834608BFB6F5807F6DD0DDF8A1
:103550003C800023019301A8ADF80810CDF80A3093
:10356000ADF80E20ADF81010ADF812202946324605
:103570004346071D00F1080900F10C0A25F0E6FD9D
:10358000384629463246434625F0E0FD484629465E
:103590003246434625F0DAFD504629463246434638
:1035A00025F0D4FDBDF90430BDF90870BDF90C500B
:1035B000BDF91040BB423E46BDF90620BDF90A10D8
:1035C000B8BF1E46A5422046B8BF28468642B8BFAF
:1035D0003046BB42ABF80000C8BF1F46A542C8BF7B
:1035E0002C46A742C8BF3C46BDF90E70BDF912601B
:1035F0008A420846B8BF1046B7423346B8BF3B467A
:103600009842B8BF03468A42ABF80230C8BF1146A1
:10361000B742C8BF3E46B142C8BF0E46ABF80440F1
:10362000ABF8066005B0BDE8F08F0020CBF80000D5
:103630004C1E561EABF80440ABF8066005B0BDE862
:10364000F08F000010B584B001AC20461BF0DEF90D
:1036500043F28D60C0F6000001904EF61D20C0F6CA
:10366000010002904EF6F110C0F6010003902046D2
:103670001BF0C0F904B010BD40F20473C2F20003A5
:103680001B680BB189B21847FEE70000F0B581B0A6
:1036900016460C46074629F0CBFEA2B240F2B024F3
:1036A000C2F2000405462046394633461BF018FB9B
:1036B00030B1A06A0021616370B1204601B0F0BD55
:1036C0002046002138221EF00DFE4FF000406063BE
:1036D0000024204601B0F0BD284629F091FE0146A5
:1036E000002808BF01212046A16201B0F0BD000002
:1036F00010B540F2BC14C2F200042046142100F0C0
:10370000F7F8204600F0FCF8A0B10021142204468E
:103710001EF0E8FD4EF6C9204EF68D31C0F60100D0
:10372000C0F60101C4E900014EF69120C0F6010087
:10373000E06010BDFEE70000F0B585B004460D4620
:1037400020B90EF0CBFC0446002869D020460EF0CC
:1037500075FD002864D094F82E00800760D4002006
:103760002DB3029020460EF0CDFC0138ADF80C00D0
:1037700020460EF047FD0138ADF80E00684602AA5B
:103780002946FFF7FDF900284AD094F82D000228B9
:1037900011D1029820630120A4F85001D4F8A401AB
:1037A00003996163E0B329F00DFF05B0F0BDA4F803
:1037B000500105B0F0BD6A4620462E210EF050FDA6
:1037C00001282DD1B4F85001C8B104F1300500270B
:1037D0006E46304629460022FFF700FA00BBB4F8D7
:1037E000501101378F4205F10805F2D3202931BF6E
:1037F00068460DF108000021A4F8501101E0684668
:1038000000210368406804EBC10213635063D4F8DD
:10381000A40101310028A4F8501118BF29F0D2FEEC
:1038200005B0F0BDF0B581B048B34568044635B386
:10383000002707E0002BA36014BF9F5067601AF0B9
:103840008FF9E5B1D4E9001328460A1DAD5883422B
:103850000ED0A66843588642ECD0002B18BF9D506E
:103860008DB16B501AF07CF9002DEBD107E000BF51
:10387000656035B16F501AF073F9002DE2D101B0D7
:10388000F0BD0021A16001B0BDE8F0401AF068B9B8
:10389000002814BF4068002070470000C0B1426893
:1038A000B2B10068011D01205258002A08BF7047BC
:1038B0005258002A04BF013070475258002A04BFF2
:1038C0000230704752580430002AEDD10138704759
:1038D0000020704700680844406870470068085836
:1038E00070470000002814BF806800207047000067
:1038F0000331002221F00301C0E900128260704709
:1039000010B50446006808301EF068F9002808BFAA
:1039100010BD216800224250626843185A606268F4
:10392000002A18BF5050A1686060002908BFA0603D
:1039300010BD000010B50446006808301EF04EF9B6
:10394000002808BF10BD22680023111D4350A36842
:103950008350A268002A18BF50506168A0600029F7
:1039600008BF606010BD000028B1416809B98068D7
:1039700008B10020704701207047000080B5002882
:1039800008BF80BD42688A4213D0D0F800E0826848
:1039900051F80E308A4217D00EF1040C51F80C0089
:1039A000002B18BF43F80C00002818BF40F80E3059
:1039B00080BD0268114449680029416007BF0021A9
:1039C00081600020885080BD0021002B836018BFDB
:1039D0000EEB0300416080BD10B5044600688268AC
:1039E00042B900BF0068002808BF10BD206082688F
:1039F000002AF7D0214690472068F3E78068002826
:103A000014BF408B002000B270470000806800287F
:103A10000EBF0020407FC0F3011070472DE9F04138
:103A200006464FF6FF70144622EA0008AEB1304653
:103A300061220D4622F054FA78B10746006860B161
:103A400030462946622222F04BFA010605D03B6837
:103A5000A1B2C2B2384698470446A0B240EA080074
:103A6000BDE8F0812DE9F04F93B00446408CDDF8BD
:103A700070B040F00400608422841646BBF8082031
:103A800020461F468A4622F02BFA2784BBF80820DE
:103A900005462046514622F023FA618C814621F0EA
:103AA00004004D45608403D102D113B0BDE8F08F0E
:103AB0002684BBF808202046514622F011FA8046A1
:103AC00020465146278404F02FFB0068BBF80810FD
:103AD000424627F041FBBBF808000B2828D147F6E7
:103AE000FF76B14518BFB04522D1204622F0B8FB81
:103AF00081B200EBD13000B24510204621F0D8FA57
:103B000081B200EBD13000B2B0454FEA600005D180
:103B1000691C00F101084145B8BF884647F6FF71AE
:103B2000894505D1691C00F101094945B8BF89469D
:103B300040F2C810C2F20000FFF7E2FED0B3C0E9C5
:103B4000038904600646BBF808006C46B080204636
:103B5000C6F808A006F050F945F22530C0F603007B
:103B60000096019045F27550C0F60300029045F2B0
:103B7000A540C0F6030003900020CDE90800FF2017
:103B80000A90BBF80000BBF802100B904842DBF82B
:103B90000C100C9007919DF84200DBF8101000F01B
:103BA000FE008DF842002046069106F0A5F913B0FC
:103BB000BDE8F08FFEE7000040F2C810C2F200003E
:103BC0001421FFF795BE00002DE9F04782B00446AE
:103BD000408C10F4FC7F00F02A816FEA01086FEA44
:103BE00002094FF0000A01AD002709E04FF0020A78
:103BF000608C00BF0137C0F3C5018F4280F0128195
:103C0000E16801EBC70252689301F3D492B202EA71
:103C1000080302EA0902B3FA83F3B2FA82F25B09FB
:103C200052099342E6D051F83760102130462A46B7
:103C300026F0EAFF002840F0F380304611212A46A2
:103C400026F0E2FF002840F0EB80304612212A46A1
:103C500026F0DAFF002840F0E380304613212A46A0
:103C600026F0D2FF002840F0DB80304615212A469E
:103C700026F0CAFF002840F0D380304614212A469F
:103C800026F0C2FF002840F0CB8030460A212A46A9
:103C900026F0BAFF002840F0C38030466A212A4649
:103CA00026F0B2FF002840F0BB8030466B212A4648
:103CB00026F0AAFF002840F0B380304601212A46B2
:103CC00026F0A2FF002840F0AB80304604212A46AF
:103CD00026F09AFF002840F0A380304602212A46B1
:103CE00026F092FF002840F09B80304603212A46B0
:103CF00026F08AFF002840F09380304605212A46AE
:103D000026F082FF002840F08B80304606212A46AC
:103D100026F07AFF002840F08380304632212A4680
:103D200026F072FF00287BD130466D212A4626F00E
:103D30006BFF002874D130466C212A4626F064FFC0
:103D400000286DD1304668212A4626F05DFF002804
:103D50007FF44CAF304669212A4626F055FF0028F3
:103D60007FF444AF30466D212A4626F04DFF0028EF
:103D70007FF43CAF30466C212A4626F045FF0028F0
:103D80007FF434AF304637212A4626F03DFF002825
:103D90007FF42CAF304638212A4626F035FF002824
:103DA0007FF424AF304635212A4626F02DFF002827
:103DB0007FF41CAF304640212A4626F025FF00281C
:103DC0007FF414AF304645212A4626F01DFF002817
:103DD0007FF40CAF304641212A4626F015FF00281B
:103DE0007FF404AF304642212A4626F00DFF00281A
:103DF0007FF4FCAE304643212A4626F005FF00281A
:103E00007FF4F4AE304649212A4626F0FDFE002814
:103E10007FF4ECAEBAF1000F08BF4FF0010AE7E6FD
:103E20004FF0030A5FFA8AF002B0BDE8F0874FF066
:103E3000000A5FFA8AF002B0BDE8F08740F218107D
:103E4000C2F200000068704770470000C0F3041021
:103E5000072828BF072070474FF6FF71884204BF2C
:103E60001F207047002804BF002070476F2805D826
:103E700045F6B251C0F60301085C704740F270117C
:103E8000C2F20001096851B140F2E032C2F2000210
:103E90007038126880B2824284BF085C704700208C
:103EA0007047000080B540F27410C2F20000182183
:103EB000FFF71EFD40F2EC10C2F20000012141703C
:103EC00080BD00002DE9F04180B3164604460D4642
:103ED000FCF738FA40F26808C2F20008D8F800206F
:103EE0000746204629469047D8F80020054620443A
:103EF00031469047391A8D4218D82044425D6B1CD8
:103F00008B42625512D843195F78AE1C62198E42FB
:103F100057700BD89F78EE1C8E42977088BFBDE813
:103F2000F081DB7804358D42D370E7D9BDE8F081AC
:103F30002DE9F04140F20808C2F200081446D8F812
:103F400004200F4619461D4606469047386040B18A
:103F50002868D8F804203044002190472060BDE84C
:103F6000F08100202060BDE8F08100002DE9F04FD5
:103F70008DB0169D8146002D9A46079208911CBF70
:103F800000202880B9F1000F2AD0089800284FF0AF
:103F9000000000F0248299F80010002900F01F8230
:103FA000179810F0060F1FD009F10102002001231D
:103FB00042F201470D2903D9115C01300D29FBD8CC
:103FC00003FA01F63E42F7D0002918BF0130002D58
:103FD00000F005824FF6FF7129800DB0BDE8F08F2B
:103FE00000200DB0BDE8F08F0021BAF1010F0A9159
:103FF000C0F2DA8100F001004D4600274FF0000BBF
:1040000000260190CDF8009040F20800C2F20000B6
:104010004268002428460CA90C949047804619F861
:1040200006000C9900280B9100F0928101980296ED
:1040300000280FFA8AF00497CDF814A0069040F0FB
:10404000B48000204FF0FF324FF0000A4FF000091B
:1040500047460026099040F20800C2F200001446CC
:10406000426828460BA99047804608983946424640
:1040700019F014FD01B28144002907982246C8BFF7
:104080008144601C09D107990FFA89F0401A0699FA
:104090004FF0FF328842C8BF32460A2F18BF0D2F9B
:1040A00000F02E81A7F59C4045F2A6118842C0F091
:1040B0002781A7F120005D2800F26080DFE810F082
:1040C00020015E005E005E005E005E005E005E003D
:1040D0005E0020015E005E002001200120015E00E4
:1040E0005E005E005E005E005E005E005E005E00E0
:1040F0005E005E00200120015E005E005E005E004A
:104100005E005E005E005E005E005E005E005E00BF
:104110005E005E005E005E005E005E005E005E00AF
:104120005E005E005E005E005E005E005E005E009F
:104130005E005E005E005E005E0020015E00200109
:104140005E005E005E005E005E005E005E005E007F
:104150005E005E005E005E005E005E005E005E006F
:104160005E005E005E005E005E005E005E005E005F
:104170005E005E005E005E005E002001501CDDE916
:104180000B0609990C90A85D0AF1010A08BF0FFA05
:1041900089F10028474609917FF45DAFDDF8009072
:1041A0004746501C40F0BA80C7E000224FF0FF3075
:1041B00000244FF0000900260390A246099209E06E
:1041C0004FF0010BDDE90B06A246A95D0C9000291A
:1041D00000F08E8040F20800C2F2000042682846DB
:1041E0000BA9474690478046232F0AF101045FFA46
:1041F0008BF007D10028E3D002280CD14FF0000B40
:10420000E0E700BF01280BD14FF0010B202F08BFC2
:104210004FF0020BD6E72327012808BF4FF0000B11
:1042200008983946424619F039FC01B28144002908
:104230000798C8BF8144039A501C09D107990FFA07
:1042400089F0401A06994FF0FF328842C8BF3246C3
:104250000A2F18BF0D2F00F05380A7F59C4045F2A0
:10426000A6118842C0F04C80A7F120005D2800F222
:104270003180DFE800F0452F2F2F2F2F2F2F2F45D4
:104280002F2F4545452F2F2F2F2F2F2F2F2F2F2FFC
:1042900045452F2F2F2F2F2F2F2F2F2F2F2F2F2F02
:1042A0002F2F2F2F2F2F2F2F2F2F2F2F2F2F2F2F1E
:1042B0002F2F2F452F452F2F2F2F2F2F2F2F2F2FE2
:1042C0002F2F2F2F2F2F2F2F2F2F2F2F2F2F2F2FFE
:1042D0002F2F2F450C9E0392501C099A08BF0FFAEE
:1042E00089F2A85D0B9900280C917FF466AF0992C2
:1042F000DDF80090039A4746A246501C0ED11CE000
:10430000501C07D136B90FFA89F0DDF800900990FA
:10431000002612E0DDF80090501C0ED00298099C97
:1043200000284FF000001CBF04460246DDE9047A75
:1043300016460A9927447EB932E0BAF1000F27D019
:104340000D2FDDE9047A099C08BFB8F10A0F00D1EE
:104350000C9E0A9927441EB399F8000031440A289C
:104360000E460A9118BF0D2831D019F806000D2805
:1043700018BF0A2829D0AAEB04010FFA81FABAF172
:10438000010F24DB002809EB06057FF43DAE1EE09B
:10439000DDE9047A099C0C9E0A99002E2744DBD1A2
:1043A0000E46169C2546B6B940F20800C2F200003F
:1043B00042680AA94846904785B1014608980022FC
:1043C00019F06CFB07462F8008E001360A96169C10
:1043D000002E2546E8D0002D18BF2F800A980DB07A
:1043E000BDE8F08F2DE9F04F83B000285DD0154671
:1043F000002A5AD0824628460C46FBF7A3FF002825
:1044000053D0064650460195FBF79CFF814640F28B
:104410006800C2F2000002685046214609EB06051A
:10442000904700EB060C6545029636D3029DAAF133
:10443000010205EB0A01A5F1030E4C1EAE1E00BFE2
:1044400002EB090109EB050891F801B0A8F1010799
:1044500004EB0903674583F801B01ED312F8098005
:1044600009EB0607674504F8098016D311F8018C9B
:1044700009EB0E07674503F8018C0ED311F8021CF7
:10448000043D03F8021C09EB0501043AAEF1040EE9
:10449000043C6145A6F10406D2D2DDE90112504484
:1044A00003B0BDE8F04F1DF0F9BB03B0BDE8F08FDD
:1044B0000378024623290BD1022B4FF0000010D0C5
:1044C000012B11D0002B02BF0120107070477047E4
:1044D000012B1CBF0020704720291CBF0120704702
:1044E00002201070012070470020107070470000FB
:1044F0002DE9F04182B004460B46CDE900110020C1
:10450000002122464FF0000829F07CFD451C07469B
:1045100028461DF063FB58B100F80780019B29462F
:104520002246064629F06EFD304602B0BDE8F08115
:10453000FEE700002DE9F04F81B0FAB1DDF82890D8
:104540009B4614460F4680464FF0010A06E000BF26
:104550002AEA0400341A05EB0B077CB1660806FB57
:104560000B7540462946C8470128F1DAB0F1FF3FF4
:104570003446F2DD284601B0BDE8F08F002528461C
:1045800001B0BDE8F08F00002DE9F04F97B016465E
:10459000209A45F27D171C46C0F600074FF0000830
:1045A0000D920E91002918BF074604F1010904F18C
:1045B000020A0025605D08EB050B002800F0A884C6
:1045C00025280FD00E995A463346B847013509F1D0
:1045D00001090AF1010A605D08EB050B0028EFD123
:1045E00000F096BCDDF834E0CDE90B67002799F8C0
:1045F0000000A0F12002102A0BD91FE00F4309F19F
:1046000001090AF1010A99F80000A0F12002102A1C
:1046100014D80121DFE802F00C12120A1212121251
:104620001212120E121012120900E7E71021E5E72C
:104630000821E3E70421E1E70221DFE7A0F13001EF
:10464000092900F27D80DDF83890002606EB86010E
:1046500000EB41019AF80000A1F13006A0F1300210
:104660000A2A29D206EB860100EB41019AF80100E3
:10467000A1F13006A0F13002092A00F2868006EB93
:10468000860100EB41019AF80200A1F13006A0F189
:104690003002092A00F2818006EB860100EB41011D
:1046A0009AF80300A1F13006A0F130010A290AF1BD
:1046B000040ACBD3AAF1010A2E2864D1514611F87D
:1046C000010F47F48067A0F13002092A4CD80AF1A3
:1046D000020A002202EB820100EB41019AF800007D
:1046E000A0F130020A2AA1F1300261D202EB82016C
:1046F00000EB41019AF80100A0F13002092AA1F172
:10470000300250D802EB820100EB41019AF802001E
:10471000A0F13002092AA1F1300247D802EB820150
:1047200000EB41019AF80300A1F13002A0F1300141
:104730000A290AF1040ACDD3AAF1010A38E000BF20
:104740002A281AD15EF8040B0028064648BF4642C4
:10475000002819F8010F48BF47F00207CA46DDF8E4
:1047600038902E28AAD00EE02A2813D15EF8041B18
:104770001AF8020F21EAE1721AE00026CA46DDF8B3
:1047800038902E289AD0002212E00AF1010A2E2831
:1047900094D0F8E700228A460AE00AF1020A2E289D
:1047A0003FF48CAFEFE70AF1010A01E00AF1020AD7
:1047B00068384FEA700009280A9218D8DFE800F03C
:1047C00008137E1717170517170547F480770CE0B5
:1047D000D4461CF8010F682840F0868047F0C007D7
:1047E0000AF1020A03E047F400770AF1010A9AF895
:1047F0000000D446A0F12503532B00F28480082149
:104800006F224FF0100ADFE813F083007E007E0075
:104810007E007E007E007E007E007E007E007E00A8
:104820007E007E007E007E007E007E007E007E0098
:104830007E007E007E007E007E007E007E007E0088
:104840007E007E007E007E007E007E007E007E0078
:104850007E007E007E007E007E007E007E007E0068
:1048600063007E007E007E007E007E007E007E0073
:10487000DD007E007E007E007E007E007E007E00E9
:104880007E007E009200950054007E007E007E0037
:104890007E0054007E007E007E007E007E00E900E7
:1048A00063007E007E00A1007E0054007E007E003A
:1048B000DD0027F010074FF00A0A83E0D4461CF809
:1048C000010F6C2818D147F440770AF1020A8EE7ED
:1048D000634613F8011F47F4887756294FF01001FB
:1048E0006DD156229C4679E047F08007A0F1250360
:1048F000532B7FF684AF06E047F48077A0F12503C1
:10490000532B7FF67CAF0BF10108CDF834E004E0C7
:10491000CDF834E00BF1010825200B9E0C9F494691
:104920005A4633466446B847214601343DE60221E3
:10493000622253E017F00209CDF834E0CDE9076CAC
:1049400000F0EA810B9E4FF0010A42E25EF8049B00
:1049500099F8000049460028CDF834E000F05F8265
:104960000A99E046B646002908BF4FF0FF31A1F191
:10497000030C8A1E4B1E0E1F002500BFAB4209EB25
:10498000050400F045826178002900F04182AA42C6
:1049900000F04082A178002900F03C82AC4500F094
:1049A0003B82E178002900F03782AE4205F1040134
:1049B00003D02579002D0D46E0D149442DE24FF07A
:1049C000100A00BF40F00801582908BF47F020072F
:1049D000642807D069280246514603D027F00C0707
:1049E00010468A46790548BF27F00107562816D099
:1049F0006928CDF820C001D064282BD1B8053AD45D
:104A0000F80507964ED478060DF13C0800F1DE80DB
:104A1000DEF800C0380648BF0FFA8CFCD8E05EF81C
:104A2000040B0B9E41680C9F0C6809EB08010F9466
:104A3000A6EB080203682944521B3846CDF834E03F
:104A400000946446FFF7A0FD4044214600EB0508B2
:104A50000134AAE5B8055DD4B046F8050DF13C0C6B
:104A600000F1C780780600F16A81DEF8000039069F
:104A700048BF80B265E10EF1070020F00700014653
:104A8000426851F8080B0D9150EA020108BF27F067
:104A90001007002957D117F4806154D000200DF180
:104AA0003C088AE05EF804CB0DF13C08BCF1000F35
:104AB00008BF27F01007BCF1000FCDF834E003D198
:104AC00017F4806040F0938007F0200181F06101CD
:104AD000604601F1F6064FF0FF32BCF1000F48BF0F
:104AE000CCF10000B0FBFAF1334601FB1A0505F0EA
:104AF000FE040A2C38BF30232B44951C08EB02041B
:104B00001F2D02F10102637000F2FA805045084641
:104B1000E8D2F5E00EF1070020F00700D0F804908D
:104B200050F8085B0DF13C080D9055EA090008BFEC
:104B300027F01007002840F0898017F4806000F00B
:104B400085800020ACE010EBE27080EAE27542EB79
:104B5000E270079680EAE27607F0200080F06100BC
:104B600000F1F6094FF0FF340DF13C08099200BF47
:104B70002846314652460023FBF748FB00FB1A52F9
:104B800004F1020C02F0FE030A2B4B4638BF30231F
:104B90001A4408EB0403BCF11F0F04F101045A701E
:104BA00006D8B5EB0A0276F1000205460E46DFD2C2
:104BB000DDF83890079E099A601CCDE900800A98BC
:104BC000D10FCDE9021ACDE90406F1E09EF800C04C
:104BD000BCF1000F08BF27F01007BCF1000F0EF169
:104BE000040ECDF834E066D117F4806063D0002065
:104BF00087E05EF8040B0028CDF834E008BF27F00A
:104C0000100718B917F4806140F0A78007F0200161
:104C100081F0610101F1F6044FF0FF31B0FBFAF3CE
:104C2000224603FB1A0606F0FE050A2D38BF302285
:104C300032448E1C0CEB01051F2E01F101016A703C
:104C400000F2AC8050451846E8D2A7E007F02000FB
:104C500080F06100F6304FF0FF340796099000BFF6
:104C60002846494652460023FBF7D0FA00FB1A5269
:104C700008EB040602F0FE030A2B099B38BF302321
:104C80001A44A31C1F2B04F10104727006D8B5EB63
:104C90000A0279F1000205468946E1D2079E601CAE
:104CA000CDE900800020CDE9020A0A980E99CDE9ED
:104CB00004060C987EE007F0200181F06101604657
:104CC00001F1F6064FF0FF32BCF1000F48BFCCF106
:104CD000000000BFB0FBFAF1334601FB1A0505F0F6
:104CE000FE040A2C38BF30232B44951C08EB020429
:104CF0001F2D02F10102637002D850450846E9D227
:104D0000501CCDE900800A984FEADC71CDE9021A07
:104D10000490079805904BE0022E57D306F1010A44
:104D20007442DDE90B670E9D5A4620202946334622
:104D30000BF1010BB8470134601CF5D149E09EF836
:104D40000000002808BF27F010070EF1040ECDF870
:104D500034E020B917F4806101D000201FE007F093
:104D6000200181F0610101F1F6044FF0FF3100BF35
:104D7000B0FBFAF3224603FB1A0606F0FE050A2DE5
:104D800038BF302232448E1C0CEB01051F2E01F17E
:104D900001016A7002D850451846E9D2481CCDE995
:104DA00000C00020CDE9020A0A98CDE9040800BF3E
:104DB0000C9849460B9E5A4633460697074600F024
:104DC000B3F8804608994C1CFFF7EFBB0B9E4FF0E1
:104DD000020A0D990C9F11F8040B5A460D910E9979
:104DE00033460BF10108B847B9F1000F5FD00798BF
:104DF00082455CD20C9F0E9DA0EB0A044246202007
:104E00002946334608F10108B847013CF6D1D9E7F5
:104E1000611C02E0A11C00E0E11C7646C446A1EB47
:104E200009020A9907F480688A4238BF1146B8F12E
:104E3000000F08BF114617F0020ACDE9076C1AD01F
:104E4000099170B3B8F1000F33D00E9D0A9E09F19D
:104E5000010400BF002E43D0DDE90B37C0B2294664
:104E60005A46013E0BF10108B84714F8010BC3463E
:104E70000028EFD135E0B1422DD2701C741ADDE963
:104E80000B570E9E099000BF5A46202031462B46F4
:104E90000BF1010BB847013CF6D199F8000000284E
:104EA000D0D10E9DD846BAF1000F1DD10B9E0C9F9C
:104EB00088E7DDE90B670E9DA9F10104C0B2294620
:104EC0005A4633460BF10108B847A0780134002850
:104ED000C346F3D105E0013109910028B2D1E0E7E2
:104EE000D846BAF1000FE1D0DDF81CA00998DDE941
:104EF0000B675045BFF466AFAAEB00044246202082
:104F00002946334608F10108B847013CF6D159E774
:104F10005A46B34528BF721E0E9900203346B84743
:104F2000584617B0BDE8F08F2DE9F04F83B0129CC2
:104F30000DF1300C1E46DDE910759CE808188A4614
:104F4000814614F00200CDE9010244D1F5B3E00737
:104F50003DD014F00C0018BF012040EA0C002D1ABF
:104F6000BB4536D2BBF11F0F33D86FEA0B01394472
:104F7000CBF11F02914238BF0A4603EB0B00511CD4
:104F800030229846FBF7FDF9DDF838C0434600BFF4
:104F90000BF10100B84238BF202813D20BF10200F8
:104FA000B8420FD21F280DD80BF10300B84209D226
:104FB0001F2807D80BF1040BBB450AD2BBF1200F09
:104FC000E6D306E08346E00725D104E00025BB4593
:104FD000C8D3E0071FD1E00660D50F98610510D453
:104FE000BBF1000F0DD0BB4518BFAB4509D1BBF1DC
:104FF00001010A4618BFABF10202102818BF0A4689
:105000009346102832D114F0200036D1BBF11F0F87
:1050100033D8782036E0AB45DDD2BBF11F0FDAD8AC
:10502000302000BF0BF10101A94203F80B0038BF8B
:10503000202980F099800BF1020203EB0B01AA42B8
:10504000487080F082801F2A00F27F800BF10302FB
:10505000AA42887079D21F2A77D80BF1040BAB458E
:10506000C870B8D2BBF1200FDCD3B4E702280DD151
:10507000BBF11F0F0AD8622004E038B1BBF11F0F4B
:1050800004D8582003F80B000BF1010BBBF11F0FE4
:1050900010D8302003F80B000BF1010BBBF11F0FF0
:1050A00008D8BCF1000F01D02D2054E060074AD48D
:1050B00020074FD49846E007029C11D10198029C2A
:1050C00070B9029CAB450BD2029AA5EB0B0700BF4F
:1050D000202051463346541CC847013F2246F7D191
:1050E000BBF1000F009511D0A8F1010818F80B00D2
:1050F000514622463346ABF10105671CC847002DD7
:105100003C46AB46F2D1019818B917E02746019802
:10511000A0B10299DDF80080781A40450ED24D42C8
:10512000202051463A4633467C1CC8472819404542
:105130002746F5D3204603B0BDE8F08F3C46204615
:1051400003B0BDE8F08F2B2005E09346E0063FF565
:1051500044AFA3E72020984603F80B000BF1010BA6
:10516000E007029CAAD0BBE78B46E0063FF535AFCF
:1051700094E700009A4238BF885470477047000097
:105180002DE9F04740F24C17C2F20007787880F022
:105190000100787040F2A410C2F20000FEF778FB24
:1051A000002808BFBDE8F08740F2A41405464FF080
:1051B0000008C2F200044FF6FF794FF0010A07E041
:1051C00020462946FEF786FB0546002800F0A88009
:1051D000686C28F015F9064628F02AF9686495F8F5
:1051E000481087F80080C1F34002787882425FD08F
:1051F00001F0FD0242EA4002286B490785F8482089
:105200001CD400281ADC811918D495F84200C00774
:1052100009D1696939B128468847296AAA6A0144CF
:1052200010442962A862A96809B12846884795F800
:10523000480040F00401286B85F848108019286365
:1052400036D4E96A8842C8BF2963E9692846884795
:105250006A6A904205D06A68014668620AB12868A5
:105260009047D5E90B01814222DB95F84810B5F84B
:10527000406011F0010205D126B14E451CBF013E30
:10528000A5F84060AB6B36041ED0EE6BC6F100068D
:105290002E636BB112B96A6B52422A6381F001012D
:1052A00085F84810A96A2A6A2962C5E90A23A86311
:1052B000387801287FF484AF2046FEF7E9FA0546E6
:1052C00000287FF485AF2BE033B12AB9EE6B76422C
:1052D0002E63002ADFD0E1E720462946FEF74EFB89
:1052E000204687F800A0FEF7D3FA0146786889B116
:1052F00028F068F9E96809B128468847296909B1A1
:1053000028468847284618F02BFC387801287FF477
:1053100057AFD1E728F046F9E9680029ECD1EDE76D
:10532000BDE8F087B0B5044640680D4610B1294687
:10533000FFF7F8FF2268002A08BFB0BD20462946C3
:10534000BDE8B0401047000070B50E680C463168EB
:10535000054639B1B07EC00604D5216028462146F5
:10536000FFF7F2FF284621462660BDE87040FFF7B0
:10537000D9BF000089B205F0FFB9000089B205F07D
:1053800069BA0000B0B5002941D080290B460BD383
:10539000B1FA81F2C2F11A024FF0FF3303FA02F2BE
:1053A000D24353187F2B35D8C3F38502002300EB7B
:1053B0008305D5F814C04FF0FF3505FA02F212EA62
:1053C0000C0210D092FAA2F2B2FA82FE00EBC312E3
:1053D00002EB8E0454F8382FCAB1556825F0030546
:1053E0008D4226D2FEE70269013305FA03F31A4023
:1053F0000DD092FAA2F2B2FA82F300EB8302D2F855
:1054000014C0BCF1000F6246DCD100BFFEE70022F1
:105410001046B0BD0022B2EBD33F24D1B3FA83F5DE
:10542000C5F11A0223FA02F282F02002C5F1190333
:10543000BDE7D568D5B19168D1B1CD60A9602568C7
:10544000954210D1814221600DD1012101FA0EF562
:105450002CEA050500EB8304656125B905699940CF
:1054600025EA010101611046B0BD00BFFEE700BFA3
:10547000FEE70000F0B54A68032A0BD9043A22F08F
:10548000030301F108029B1806D05D68EC0704D104
:105490000846F0BDFEE700BFFEE725F003047F2CC1
:1054A0003BD8C5F3850E4FF0000CDD68002D41D0D0
:1054B0009C686CB3E560AC6000EBCC1505EB8E0529
:1054C00055F8386F9E4211D184422C600ED100EB0A
:1054D0008C0501276E6907FA0EF4A6436E612EB99A
:1054E000066907FA0CF726EA0707076148680328E8
:1054F00010D95B68043323F0030318440328486081
:105500000AD9043820F0030081500846F0BD00BFDE
:10551000FEE700BFFEE700BFFEE7B4FA84FCCCF173
:105520001A0524FA05F585F0200ECCF1190CDD687A
:10553000002DBDD1FEE7000070B531B122B14B683E
:10554000DD0704D1FEE700BFFEE7002070BD23F0B9
:10555000030402F11005AC4211D2032B40F2828009
:10556000181F20F0030201F108000244536823F0E1
:10557000020353604A6822F001024A6070BD01F1E3
:10558000080E02EB0E03DD1D1E1D25F00305AE42C5
:1055900001D000BFFEE7A3F1040CA31ADCF804401D
:1055A000043B04F003041C430B2BCCF804402DD91E
:1055B0004B6803F003031A434A60DCF80420032A13
:1055C00026D9043A22F00304A219536843F00203D7
:1055D0005360DCF8042042F00103CCF804304B683F
:1055E00044F806C0032B15D9043B23F0030343F80A
:1055F0000E1022F0030342F003067F2BCCF8046068
:1056000009D8C2F3850E00230EE000BFFEE700BFFD
:10561000FEE700BFFEE7B3FA83F2C2F11A06F340D9
:1056200083F0200EC2F1190300EBC31202EB8E02CD
:1056300052F8384FC4B1CCE90240C4F80CC0012480
:10564000056904FA03F63543056100EB83004369FD
:1056500004FA0EF6334343614B68C2F800C0032BD3
:105660003FF67EAFFEE700BFFEE70000B0B582B0B8
:1056700004461AF083F805461AF0C4F838B1208FB2
:10568000E086204621F086F9012002B0B0BD606AB4
:10569000012120F083FE28B1204617F0B1FE012041
:1056A00002B0B0BD204601211EF0E8FD4FF6FF71AB
:1056B000606A618701211DF067FD204621210022DB
:1056C00023F028F8218FE08E81420BD020870190B3
:1056D00001AA20461D2123F01DF80128D5D120461E
:1056E00021F058F928461AF097F8042805D12046E9
:1056F0001FF0D8FC002119F01FF9012002B0B0BD45
:10570000B0B518F035F804461FF064FD0546204694
:1057100006F0D2FC014628460122BDE8B04026F042
:1057200001BE00002DE9F04F91B0CDE90B320D9094
:10573000C8784AF6C9120E914AF6D511C0F6000291
:1057400010F00100C0F6000118BF0A4604924AF6A4
:105750003912C0F600024AF66D111346C0F6000178
:1057600018BF0B460A9345F6D563002808BF0A46C2
:10577000C0F60203089245F6BD611A46C0F6020162
:1057800018BF0A46002845F6B160DDF87890C0F6EB
:105790000200099245F6C96208BF0B460146C0F6F1
:1057A0000202079318BF1146D9F810E0059108BF0F
:1057B0001046069004E000BF5FEACC7000F0D38092
:1057C000B9F80200B9F80410BEF1000FA0EB010116
:1057D0000CD0D9F80C30AEF1010003280EF0030410
:1057E0000AD200260022002C51D181E00022BEF115
:1057F000000F40F08080B6E0AEEB040703F14C05EB
:105800000026002215F83C0CC0070DD022E000BF96
:1058100035F8040C02440436B74205F1500535D082
:1058200015F83C0CC00715D135F8400C024415F8AA
:10583000280CC00715D035F8300C091A15F8140CCF
:10584000C00715D035F81C0C091A2878C007DFD01E
:1058500014E000BF35F8440C091A15F8280CC007ED
:10586000E9D135F82C0C024415F8140CC007E9D125
:1058700035F8180C02442878C007C9D035F8080C50
:10588000091A0436B74205F15005C9D184B306EBB5
:10589000860003EB8000077CFF0704D18089024467
:1058A000012C04D124E00089091A012C20D0701C9D
:1058B00000EB800003EB8000077CFF0704D18089A8
:1058C0000244022C04D113E00089091A022C0FD0E3
:1058D000B01C00EB800003EB8000037CDB0705D1EC
:1058E00080890244BEF1000F05D13CE00089091A0D
:1058F000BEF1000F37D0002300274FF0000C09E065
:105900001D44121A091B2C810137774503F114033A
:10591000BFF452AFD9F80C50EE1896F810805FEA39
:10592000C870F1D110041DD010B20CB294FBF0F489
:10593000F068B6F904B044430FFA84FAB6F90640A9
:10594000A245B8BF54465C45B8BF5C465445D7D065
:1059500048F001003074D9E9035E4FF0010CE818FB
:10596000C068CDE7FEE70D980021162220F0B8FAB6
:105970000E99D9F808300F78B9F802101AB2012A36
:1059800002DCFE1E032E0BD3013F042F0FD81B0495
:10599000DFE807F003062B3C47001C9A511A07E08A
:1059A0001C9A09B2511A01EBD171491000E0002193
:1059B00003910025DDE90B615FFA80FABAF1010F6E
:1059C00040D10E98C07810F001003BD00D9C2046CD
:1059D0001FF0D8FA039A0C990244204603921FF054
:1059E000FBF90C9AB24234D1F3E11C9A511A03F537
:1059F000803209B2121491FBF2F50395DDE90B61D7
:105A00005FFA80FABAF1010FDBD01BE01C9B591A38
:105A100009B291FBF2F5A9B205EBD13109B24910F7
:105A200008E01C9A511AA3F5803209B2121491FBB6
:105A3000F2F500210391DDE90B615FFA80FABAF11A
:105A4000010FBED00D981FF0C7F90C9AB24200F0BA
:105A5000C0810446002800F0BC811D98012740F257
:105A6000EC2B2844C0F20607C2F2000B029000BFE4
:105A700020463946154620F099FCD8B10E98C078DA
:105A8000400707D40D982A4680686A1C41688A42FC
:105A900007DB9EE1012DC0F29C812A460D98013A58
:105AA0008068B24200F09581006850F82240002CD6
:105AB000DED18EE1BBF800202046002120F010FA54
:105AC000000625D0D9F8102002B3D9F80C0003271E
:105AD00000F13C0353F83C1CA14234D0B91E914262
